:020000040800F2
:10000000002C00207D0200088502000887020008FD
:10001000890200088B0200088D0200080000000021
:100020000000000000000000000000008F02000837
:1000300091020008000000001B02000831250008A2
:10004000970200089702000897020008970200082C
:10005000970200089702000897020008970200081C
:10006000970200089702000897020008970200080C
:1000700097020008970200089702000897020008FC
:1000800097020008970200089702000897020008EC
:1000900097020008970200089702000897020008DC
:1000A00097020008970200089702000897020008CC
:1000B000B925000897020008812600089702000869
:1000C00097020008970200089702000897020008AC
:1000D00097020008B5280008970200089702000858
:1000E00097020008970200089702000800F002F843
:1000F00000F063F80AA090E8000C82448344AAF15F
:100100000107DA4501D100F058F8AFF2090EBAE85C
:100110000F0013F0010F18BFFB1A43F0010318473B
:1001200084370000A437000010F8013B0A4413F0A4
:10013000030408BF10F8014B1D1108BF10F8015B44
:10014000641E05D010F8016B641E01F8016BF9D133
:10015000002D15D010F8014B03F00C030C2BA1EB74
:1001600004040ABF10F8013BA4EB8314A4EB03249E
:1001700005F1010314F8016B5B1E01F8016BF9D561
:10018000914238BF10F8013BD1D3704700230024BF
:1001900000250026103A28BF78C1FBD8520728BF97
:1001A00030C148BF0B607047642900F0C98000204F
:1001B00070471FB51FBD10B510BD00F0DAF911462C
:1001C000FFF7F7FF02F02CFE00F0F8F903B4FFF799
:1001D000F2FF03BC02F083FCEFF3108072B67047AD
:1001E00080F3108870471D484FF0FF010170002018
:1001F00080F309881A48012101701A484FF0805194
:10020000016062B6FEE717484FF080510160704709
:1002100014484FF080510160704772B6EFF30980C7
:1002200028B1203880E8F00F0F490968086000B550
:100230000E4880475DF804EB0D480E490A780270BD
:1002400009480D490A680260106890E8F00F2030F4
:1002500080F309884EF0040E62B6704722ED00E08C
:10026000360B002004ED00E03C0B0020B516000822
:100270002F0B0020300B0020440B00200948804742
:1002800009480047FEE7FEE7FEE7FEE7FEE7FEE778
:10029000FEE7FEE7FEE7FEE704480549054A064B90
:1002A0007047000059250008ED00000800260020D6
:1002B000002C0020002800200028002070470000AB
:1002C0000FB4044910B503AA029800F0DBF810BC83
:1002D0005DF814FB540D00202DE9F0410E46044654
:1002E000002020622046E168884730B3252805D0E9
:1002F000D4E901219047206A401CF2E7E1682046DA
:1003000000278847050018D0A5F14100192802D818
:1003100020354FF400673246294620462760FFF714
:1003200043FF40B1012804D0F61D26F00706083629
:10033000D8E7361DD6E72846DAE7206ABDE8F0811F
:100340002DE9F0410646002410687529314616A5AE
:1003500010D0AFF30080002802DA404213A507E076
:1003600031688A0701D512A502E0490704D511A515
:10037000012401E0AFF3008000210A2206F12407E6
:1003800009E0B0FBF2FCB0FBF2F302FB1C003030E2
:1003900078541846491C0028F3D123462A46304693
:1003A000BDE8F04100F014B8000000002D0000008E
:1003B0002B0000002000000002F0FF0343EA0322AC
:1003C00042EA024200F072B87047704770477047C7
:1003D0002DE9F0470D4699469246044600F124085F
:1003E0000168880604D5E06921F01001216000E071
:1003F0000120A84201DD471B00E00027A1697A190E
:1004000002EB0900081AA0612078C00602D4204639
:10041000AFF30080002608E0D4E901211AF80600B5
:100420009047206A401C761C20624E45F4DB207801
:10043000C0060AD52046AFF3008006E0D4E90121CA
:1004400030209047206A401C2062381EA7F1010727
:10045000F4DC07E0D4E9012118F805009047206A90
:10046000401C2062281EA5F10105F3DC2046AFF3F5
:1004700000802078000602D50220BDE8F087012028
:10048000FBE70000074B70B50D467B4400F033F8E6
:100490000446284600F042F810B14FF0FF3070BD1E
:1004A000204670BD772900004FF000020429C0F0FB
:1004B000128010F0030C00F03780CCF1040CBCF17A
:1004C000020F18BF00F8012BA8BF20F8022BA1EBE8
:1004D0000C0100F029B85FEAC17C24BF00F8012BB1
:1004E00000F8012B48BF00F8012B704701694A1C36
:1004F00002610878704700B58FB0CDE90131002165
:10050000059105497944CDE9031011466846FFF786
:10051000E3FE0FB000BD0000E5FFFFFF007B00F031
:10052000800070474FF0000200B51346944696468F
:10053000203922BFA0E80C50A0E80C50B1F12001F6
:10054000BFF4F7AF090728BFA0E80C5048BF0CC0A4
:100550005DF804EB890028BF40F8042B08BF704702
:1005600048BF20F8022B11F0804F18BF00F8012B74
:100570007047754600F02CF8AE46050069465346B4
:1005800020F00700854618B020B5FFF785FEBDE8CE
:1005900020404FF000064FF000074FF000084FF0EA
:1005A000000B21F00701AC46ACE8C009ACE8C0097B
:1005B000ACE8C009ACE8C0098D46704710B50446E8
:1005C000AFF300802046BDE81040FFF7FFBD0000FC
:1005D00000487047A025002021B1826842F0010246
:1005E000826003E0826822F00102826070470000AE
:1005F00010B504461248844208D10121401501F08B
:100600005FFE0021601501F05BFE17E00D4884429B
:1006100008D10121001501F053FE0021201501F041
:100620004FFE0BE00848844208D10121C80301F0C5
:1006300047FE00214FF4004001F042FE10BD0000D3
:100640000024014000280140003C014001460020F8
:100650008A6802F004020AB1012000E0002070471D
:100660000146C86C80B270470246002013680B40F8
:100670000BB1012000E000207047014600208A688D
:1006800002F008020AB1012000E0002070470000DB
:1006900030B502460020002350680F4C20400D79F1
:1006A0000C6844EA05242043506090680B4C2040BD
:1006B000D1E902542C434D7944EA4504204390602B
:1006C000D06A20F470000C7C641EE4B2234340EA3C
:1006D0000350D06230BD0000FFFEF0FFFDF7F1FFD8
:1006E000F0B504460D4600200021092D11DDE0681B
:1006F000A5F10A0606EB4607072606FA07F1884326
:10070000A5F10A0606EB460603FA06F10843E06087
:100710000CE0206905EB4507072606FA07F1884338
:1007200005EB450603FA06F108432061072A0FDAB4
:10073000606B561E06EB86071F2606FA07F18843F4
:10074000561E06EB860605FA06F10843606322E0B2
:100750000D2A0FDA206BD61F06EB86071F2606FA36
:1007600007F18843D61F06EB860605FA06F1084313
:10077000206310E0E06AA2F10D0606EB86071F2653
:1007800006FA07F18843A2F10D0606EB860605FA84
:1007900006F10843E062F0BD816841F00801816024
:1007A000704721B1826842F4A002826003E082684F
:1007B00022F4A00282607047816841F004018160E8
:1007C0007047000000B587B001214FF4017001F0BF
:1007D00067FD4FF4004001F047FD3A20ADF80400FA
:1007E00000208DF8070001A9174800F0ABF8174862
:1007F000FFF7FEFE002002908DF80C008DF80D0032
:100800004FF4602004900020059001208DF818001E
:1008100002A90E48FFF73CFF01210C48FFF7DCFE60
:100820000A48FFF7B9FF00BF0848FFF726FF002876
:10083000FAD10648FFF7C0FF00BF0448FFF706FFE4
:100840000028FAD107B000BD000801400024014093
:1008500000B585B0684601F043FD019805B000BDC4
:1008600008B501211C2001F01BFD4FF2E030ADF86E
:10087000000010208DF8030003208DF80200694667
:10088000054800F05FF84FF48070ADF8000069464D
:10089000024800F057F808BD000C01400008014074
:1008A00000BF012401251DE000260F480068012833
:1008B00002D102F0B5FB11E00C48006800EB8000AB
:1008C0000B4901EB800044680848006800EB800099
:1008D00051F820502946204602F0AAF90A2000F0DB
:1008E00009F800BFE0E70000080B0020F80A00202C
:1008F0001000002010B50446A0B200F0DDFE10BDCF
:100900001BE00E480068A8B90D48006830B1012806
:1009100005D0022806D003280AD106E009E002F03B
:1009200033FA06E002F0AAF903E002F0E5F900E08C
:1009300000BF00BF6420FFF7DDFFE2E75C09002095
:10094000580900202DE9F04102460025002600202C
:1009500000230024002791F803C00CF00F0591F844
:1009600003C00CF0100CBCF1000F03D091F802C0D2
:100970004CEA050591F800C0BCF1000F31D01468B5
:1009800000202BE04FF0010C0CFA00F3B1F800C08E
:100990000CEA03069E4220D183004FF00F0C0CFAA4
:1009A00003F7BC4305FA03FC4CEA040491F803C0C6
:1009B000BCF1280F06D14FF0010C0CFA00FCC2F874
:1009C00014C00AE091F803C0BCF1480F05D14FF004
:1009D000010C0CFA00FCC2F810C0401C0828D1D34E
:1009E0001460B1F800C0BCF1FF0F34DD5468002082
:1009F0002EE000F1080C4FF0010808FA0CF3B1F8F2
:100A000000C00CEA03069E4221D183004FF00F0C78
:100A10000CFA03F7BC4305FA03FC4CEA040491F812
:100A200003C0BCF1280F05D100F1080C08FA0CF83E
:100A3000C2F8148091F803C0BCF1480F07D100F14F
:100A4000080C4FF0010808FA0CF8C2F81080401C9E
:100A50000828CED35460BDE8F08141617047016140
:100A600070470AB1016100E04161704710B504466A
:100A70000723012221460948FFF732FE01210748DA
:100A8000FFF78FFE00BF02210448FFF7EDFD0028AD
:100A9000F9D00248FFF7E4FD10BD0000002401403A
:100AA0002DE9FF5F83460C460025002608E05846E6
:100AB000FFF7DCFF05440120FFF71CFF701CC6B2E6
:100AC000A642F4DBB5FBF4F01FFA80F9484602F0C9
:100AD00025FD019002F0B6FC4FF06632064BCDE9E1
:100AE000020102F0B1FB074602F07CFB8246504651
:100AF00004B0BDE8F09F000066664A3F2DE9F04172
:100B0000064637462148006821490860002424E051
:100B1000204850F82450E8B20321FFF7C1FF804677
:100B20003946404602F00EFD11D20120FFF7E2FEE9
:100B3000E8B20321FFF7B4FF80463946404602F091
:100B400001FD04D20120144941F8240004E00020F2
:100B5000114941F8240000BF641C042CD8DB0E4866
:100B60000068C1000C48406801EB80010A488068B9
:100B700001EB40000849C968084404490860084678
:100B80000068401E0860BDE8F0810000040B0020F2
:100B9000000B00200000002070110020574C00BF07
:100BA00000BFA9E02046FFF7A9FF55480068554956
:100BB0000968884201D002F09BFA53480068012876
:100BC00070D10020504908604E480068401C00B9B0
:100BD00092E04C480068002843DB4A4800680A2835
:100BE0003FDC002049490860464A126802EB820255
:100BF000474B03EB8202128A91B2424A126802EB1F
:100C0000820203EB8202928990B201F0D3FB3D484D
:100C100000683B4908603F480068012805D1394811
:100C200000683D49086002F057FA3C48006880B10E
:100C3000344800683849086032480168384802681A
:100C40000068401C364B1860364840F8221002F00D
:100C500043FA3548006820BB2A4800682E490860DE
:100C600033E0284800680B2806D102202E4908608E
:100C700000202849086028E0224800680C2806D196
:100C80000320294908600020224908601DE01D4812
:100C900000680D2807D101202349086000201D4964
:100CA000086012E024E0174800680E280DD10120EA
:100CB0001649086000201C49086001201549086099
:100CC000821E64211748FFF777FB0E48016817A0C2
:100CD000FFF7F6FA0F48006828B94FF4005115489D
:100CE000FFF7BBFE04E04FF400511248FFF7B7FED8
:100CF0003220FFF7FFFD00BF54E700009A99D93F6B
:100D0000000B0020040B0020FC0A0020080B002030
:100D1000100000205C090020F80A00206009002073
:100D2000F40A0020640900205809002025640A0DF7
:100D3000000000000010014008B50121102001F062
:100D4000AFFA4FF40050ADF8000010208DF803000A
:100D500003208DF8020069460448FFF7F3FD4FF4C5
:100D600000510248FFF77BFE08BD00000010014063
:100D700070B5002100230F22C47804B3154C2468F9
:100D800004F4E064C4F5E064210AC1F10403CA403C
:100D9000447804FA03F184781440214309010E4C8D
:100DA0000678A155047804F01F050124AC400578AD
:100DB0006D11AD0005F1E025C5F8004109E00478AA
:100DC00004F01F050124AC40044D0678761145F867
:100DD000264070BD0CED00E000E400E080E100E0A2
:100DE00002490143024A1160704700000000FA0501
:100DF0000CED00E0174818481848194819481A48D7
:100E00001A481B481B481C481C481D481D481E48C2
:100E10001E481F481F482048204821482148224892
:100E20002248234823482448244825482548264862
:100E300026482748274828482848294829482A4832
:100E40002A482B482B482C482C482D482D4800BFB9
:100E50007047000044380008483800084C38000843
:100E60004E3800085038000852380008543800083E
:100E700056380008583800085A3800085C3800080E
:100E80005E380008603800086238000864380008DE
:100E900066380008683800086A3800086C380008AE
:100EA0006E3800087038000872380008743800087E
:100EB00076380008783800087A3800087C3800084E
:100EC0007E3800088038000882380008843800081E
:100ED00086380008883800088A3800088C380008EE
:100EE0008E380008903800089238000894380008BE
:100EF00096380008983800089A3800089C3800088E
:100F00009E380008A03800082DE9F04105460E463D
:100F100014464FF000080CB9BDE8F08115B9042063
:100F20002070F9E716B90C202070F5E71948007811
:100F3000002802DD12202070EEE72878012808D072
:100F4000022807D0032802D0042804D100E000BF03
:100F500000BF00BF02E001202070DDE700BFFFF707
:100F60003BF98046304601F063F807460F2F05DD58
:100F70004046FFF735F90B202070CDE7314605F1EB
:100F80000F0001F047F84046FFF72AF900202070D3
:100F900000BFC1E72D0B002010B500F019F800F0DC
:100FA000CBFE00F0F3FE00F015FF00F09DFE00F018
:100FB00075FE00F09DFF00F0C1FF00F03FFF00F064
:100FC00065FF00F043FC00F009F8FFF713FF10BDC8
:100FD0000020014908807047700B00207047000016
:100FE00006480078012808D105480078FF2804D277
:100FF00003480078401C024908707047360B0020F7
:101000002D0B002010B500241A480078012830D19B
:10101000FFF7E2F8044618480078002804DD164877
:101020000078401E1449087013480078F0B913483E
:101030000078D8B900F0D8FF114800781149097834
:10104000884213D010480E49097850F821000F4902
:10105000086008460068806B401C096888630C487B
:101060000068401C0A490860FFF7D2F82046FFF7E5
:10107000B7F810BD360B00202D0B00202E0B0020E2
:10108000300B00202F0B00204C170020440B0020B9
:10109000140B002070B50546002612480078002881
:1010A00001DD002070BDFFF797F806460E48046882
:1010B000006820B10C48006840680B490860304661
:1010C000FFF78EF85CB1032020702581002060605E
:1010D0003F20E07300212174204600F0D1FD20461E
:1010E000E0E700002D0B0020180B00202DE9F04157
:1010F00005460E46144600270CB9BDE8F08115B927
:1011000004202070F9E72878032802D001202070FD
:10111000F3E734480078002802DD02202070ECE775
:1011200031480078002802DD0D202070E5E7FFF748
:1011300053F807462889002808DD2889401E2881A1
:101140003846FFF74DF800202070D6E727480068A2
:1011500090F8300040F001002449096881F830001F
:1011600000202249096881F8310020480068C685BE
:10117000284600F047FD3846FFF732F800F0FAFE47
:10118000FFF72AF807461948006890F8310020B1A7
:10119000012809D0022806D102E0002020700BE0CF
:1011A0000E20207008E000BF29461048006800F0BB
:1011B000F7FC0A20207000BF00BF00200B4909681F
:1011C00081F830000949096881F831000749096848
:1011D000C8610649096808623846FFF701F800BF90
:1011E0008BE700002D0B00202E0B00203C0B002075
:1011F00070B5044600250CB9042070BD2078032882
:1012000001D00120F9E7FEF7E7FF0546A07A60B1BB
:10121000002301221946204600F07AFC2846FEF7FA
:10122000DFFF00F0A7FE0020E7E720894FF6FF71FF
:10123000884207D22089401C20812846FEF7D0FF33
:101240000020DAE72846FEF7CBFF3220D5E7000082
:1012500010B50B48007890B900F0C6FE0948007838
:101260000949087009480749097850F821000849D8
:1012700008600846006807490860FEF7B4FF10BD23
:10128000360B0020300B00202F0B00204C170020C5
:10129000440B00203C0B0020704700002DE9FE4F5E
:1012A00006460F4690461C464FF000091F2C02DDF3
:1012B0002A20BDE8FE8FFEF78FFF81461F48007889
:1012C000002804DD4846FEF78BFF3C20F1E71C4870
:1012D00050F8240060BB0120194941F82400484619
:1012E000FEF77EFF002342463946304600F036F9CD
:1012F000824600200090019003460246514602902B
:10130000204600F09FFE054635B90E4800780128BA
:101310000CD100F02FFE09E0FEF75EFF81460020B1
:10132000074941F824004846FEF75AFF2846C0E71F
:101330004846FEF755FF2820BBE700002D0B002094
:101340004C170020360B00202DE9F04F85B0814668
:101350008A4693461C46DDE90F78129D00200390D3
:101360001F2C03DD2A2005B0BDE8F08FFEF734FF07
:10137000039022480078002804DD0398FEF730FF30
:101380003C20F0E71E4850F8240088BB01201C498F
:1013900041F824000398FEF723FF2A4641463846C9
:1013A00000F054FF2B465A465146484600F0D6F806
:1013B00004901198CDE9008002953A4620460E9B94
:1013C000049900F03FFE064636B90E480078012821
:1013D0000CD100F0CFFD09E0FEF7FEFE03900020E7
:1013E000074941F824000398FEF7FAFE3046BAE7B1
:1013F000FFE70398FEF7F4FE2820B4E72D0B00204A
:101400004C170020360B0020704770472DE9F0473D
:1014100005460F4614464FF000090CB9BDE8F087A9
:101420001F2D04DDFF2D02D02A202070F6E717B90A
:101430000C202070F2E71D480078002802DD122001
:101440002070EBE7FEF7C8FE8146FF2D03D1184858
:10145000006890F83250174850F825602EB9484679
:10146000FEF7BEFE43202070D8E7012E05D1484686
:10147000FEF7B6FE43202070D0E7384600F0D8FDD6
:101480008046B8F10F0F05DD4846FEF7A9FE412062
:101490002070C3E7394606F14C0000F0BBFD48461A
:1014A000FEF79EFE0020207000BFB7E72D0B002046
:1014B0003C0B00204C170020704700002DE9F0473E
:1014C00006460C464FF0000A1F2E04DDFF2E02D008
:1014D0002A20BDE8F0870CB90920FAE70020206037
:1014E0006060FEF779FE8246FF2E03D1194800683E
:1014F00090F83260184850F8265025B95046FEF74B
:101500006FFE4320E5E7012D04D15046FEF768FE4B
:101510004320DEE7287C00F0010020B95046FEF7AA
:101520005FFE4520D5E70027D5F80C90D5F8088058
:101530005046FEF755FE00E07F1C58F8041B0029BA
:10154000FAD0B8002060A9EB07008000606000209E
:10155000BFE700003C0B00204C17002070B504468C
:1015600010464FF080750560051F28462C606FF00F
:101570000106051F28462E604FF01236051F28462B
:101580002E604FF00336051F28462E604FF00236BE
:10159000051F28462E607610051F28462E60051F61
:1015A000284629604FF01136051F28462E604FF05F
:1015B0001036051F28462E604FF00936051F2846B5
:1015C0002E604FF00836051F28462E604FF0073674
:1015D000051F28462E604FF00636051F28462E6050
:1015E0004FF00536051F28462E604FF00436051FC4
:1015F00028462E6070BD00002DE9F04105464FF0F1
:1016000000081F2D02D14720BDE8F0811F2D03DB0C
:10161000FF2D01D02A20F7E7FEF7DEFD8046FF2DE3
:1016200005D12048006890F83250012608E01D4896
:10163000006890F83200A84201D1012600E000269F
:10164000194850F8254024B94046FEF7C9FD482006
:10165000DAE7012C04D14046FEF7C2FD4320D3E770
:1016600094F834701148C05D94F8351088430F49E0
:10167000C8550846C05D30B994F836100C4800785B
:1016800088430B49087094F8300040F0080084F853
:1016900030004046FEF7A4FD012E01D100F06AFCA7
:1016A0000020B1E73C0B00204C170020320B00203B
:1016B000310B00207047000070B505460026164823
:1016C0000078002800DD70BD002D23DDFEF784FDCD
:1016D00006461248006890F834401148005D0F49F2
:1016E000096891F8351088430D4908550846005D92
:1016F00040B90A48006890F836100A4800788843D4
:101700000849087005480068C5853046FEF768FD41
:1017100000F030FC00BFD6E72D0B00203C0B002072
:10172000320B0020310B002070B5002600F072F85B
:10173000FEF752FD064631480068401C2F490860FC
:101740003046FEF74DFD2E480078012853D12D4834
:10175000007820B1012804D0022809D103E0012536
:101760000BE0002509E0012501202649087004E06E
:10177000012500202349087000BF00BF05B970BDD6
:101780002148046833E0FEF727FD0646E08D50B39C
:10179000E08D401E80B2E08528BB94F8300000F058
:1017A000370040B114F8300F20F0370020700120CE
:1017B0006070303C02E0002084F8310094F8300082
:1017C00000F0080078B93434A0781049097808434B
:1017D0000E49087020780E49085C6178084314F8B7
:1017E00034190B4A505464693046FEF7F9FC94F8FA
:1017F00032001F28C7D100BFC1E70000580B0020EE
:10180000360B00204C0B0020480B0020310B002031
:10181000320B002010B507480088401C054908809D
:1018200008460088642803DB0020088000F004F8E4
:1018300010BD0000700B002010B503480068FFF7D2
:10184000D7FC0446204610BD680B0020F8B54FF4C5
:101850005071274800F042FB4021264800F03EFB33
:10186000234C04F1340600250FE064202070002092
:1018700084F83100E6603F2084F820000021212018
:10188000015534343436681C85B20F2DEDDB6420ED
:101890002070002084F83100E0603F2084F82000B0
:1018A00000212120015500201349086013490880B8
:1018B0001020134908800E48124908600120FFF7E4
:1018C000E9FB114908600020FFF7E4FB0F490860BD
:1018D0006A460FA10C480068FFF716FB6A460FA185
:1018E0000A480068FFF710FB00F01EF8F8BD000082
:1018F000581F002098240020600B00205E0B002061
:101900005C0B00206C0B0020640B0020680B002097
:101910004F532D546D724C6F636B00004F532D5419
:101920006D7253696700000000B587B00320002185
:1019300080220A4BCDE90132CDE903104FF6FD704C
:101940001D23074A00900748FFF7FEFC06AA06A1E0
:101950001D20FFF75BFD07B000BD000098220020AE
:1019600094240020F919000875432F4F532D49493D
:1019700020546D720000000070B50B46032580F8FE
:101980003150012B05D1154EC56936683544456186
:101990000CE085692DB9114EC5693668354445613D
:1019A00004E00E4E8569366835444561057D05F0D5
:1019B00007040B4D05EBC4010D682DB90860002527
:1019C000C56001258D8006E00A680860C26010616C
:1019D0008D886D1C8D800025056170BD600B002019
:1019E0009824002008B56A46002102480068FFF7E5
:1019F0007DFB08BD640B002008B500BF6A460021CE
:101A000019480068FFF772FBFFF7ECFF1748006802
:101A1000401C164908600846007800F00708144882
:101A200000EBC8073C681AE0E6681049606909687D
:101A3000884213D1656815B12046A168A8472046A1
:101A400000F018F894F83000022804D10121204653
:101A5000FFF792FF02E0022084F831003446002CA8
:101A6000E2D100F029F8C9E7680B0020600B0020E4
:101A70009824002030B5057D05F007040D4D05EBD9
:101A8000C4031D68854205D1C168196039B10025BC
:101A90000D6104E00169C268CA6002B111610125EB
:101AA00080F831500025C56005619D886D1E9D80C0
:101AB00030BD00009824002010B502480068FFF7F0
:101AC00097FB10BD640B002010B5FEF7C1FE044665
:101AD000204610BD10B5FFF7F7FF4FF47A71B0FB49
:101AE000F1F4601E4FF0E0214861FF2007490870C3
:101AF0004FF0E020006940F005004FF0E021086160
:101B00000846006940F00200086110BD23ED00E0C6
:101B10002DE9F04F05460F4690469946A87A1C4994
:101B20000E5C05F10B00805D11F800B00BEBC600F8
:101B300000F0FF0A174850F82A4000202434608142
:101B40002760207B20EA0800207384F80D90207B1A
:101B5000243C00F0080068B994F836000E49097872
:101B600008430D4908700D48805D94F8351008430E
:101B70000A4988552946204600F012F8206A20B10B
:101B80002046216A00F021F8E5615046BDE8F08F5B
:101B9000443700084C170020310B0020320B002086
:101BA00010B590F8342001F10B039B5C90F83540A0
:101BB000A34301F10B04A35423469B5C23B98B7A06
:101BC00090F83640A3438B7210BDF0B5024612F870
:101BD000344F95785678343A0B4618680FE000F188
:101BE0000B073F5DB74300F10B0C0CF80470674620
:101BF0003F5D17B9877AAF4387721B1D18680028AD
:101C0000EDD1F0BD10B51B4A1268D061194A1268B7
:101C100092F8343000F10B02D25C164B1B6893F83B
:101C200035301A43134B1B6893F8344000F10B0313
:101C30001A55827A0F4B1B6893F836301A4382721A
:101C40000C4A126892F834100B4A525C094B1B681C
:101C500093F835309A43084B5A541A46525C42B9AD
:101C6000044A126892F83630044A12789A43034BB9
:101C70001A7010BD3C0B0020320B0020310B0020ED
:101C80000023837200F10B01002204E0002301F81D
:101C9000013B531CDAB2042AF8DB704770B58C2183
:101CA0000F4800F01BF90E4C04F11C0600250AE059
:101CB0000020207066603F20A0720021E1721C3479
:101CC0001C36681C85B2042DF2DB00202070606099
:101CD0003F20A0720021E17201480249086070BDF6
:101CE000C01200201C0B002030B54FF4A07110482A
:101CF00000F0F4F80E4B03F1200500240AE0002068
:101D000018705D603F20D87300211974203320358E
:101D1000601C84B2092CF2DB0020187058603F2050
:101D2000D8730021197402480249086030BD0000D0
:101D300080110020180B002000200A4908600A4981
:101D400008700A4908700A4908700A4908700A4967
:101D500008600A4908600A4908600A4908600A4997
:101D600008707047580B00202D0B00202E0B002010
:101D7000370B0020360B0020140B0020380B0020FE
:101D8000280B0020240B00202C0B002000220B4BE2
:101D90001A700B49002004E0002201F8012B421CBC
:101DA000D0B20428F8DB0022064B1A70064B1A70DA
:101DB000064B1A60064B1A6070470000310B00207A
:101DC000320B00202F0B0020300B0020440B002092
:101DD0003C0B002030B54FF4CF61144800F07EF882
:101DE0008021134800F07AF8104B03F15C050024C1
:101DF0000AE05D613F2083F84C0000214D20C15472
:101E00005C335C35601CC4B2112CF2D300205861E5
:101E10003F2083F84C0000214D20C154002005498B
:101E2000086002480449086030BD0000CC1700205B
:101E30004C170020480B0020400B002000B587B055
:101E40000320002180220A4BCDE90132CDE90310A5
:101E50004FF6FF701F23074A00900748FFF774FAF8
:101E600006AA06A11F20FFF7D1FA07B000BD0000A7
:101E70004C150020481700206521000875432F4F9E
:101E8000532D49492049646C6500000000B587B0B6
:101E90000320002180220A4BCDE90132CDE9031055
:101EA0004FF6FE701E23074A00900748FFF74CFAD2
:101EB00006AA06A11E20FFF7A9FA07B000BD000080
:101EC0004C130020481500208921000875432F4F2E
:101ED000532D4949205374617400000004E000222E
:101EE00000F8012B4A1E91B20029F8DC704700006F
:101EF00070B5B4210F48FFF7F1FF0E4C00250DE03F
:101F0000681C00EBC0000B4901EB800060603F20C3
:101F10002075002161752434681C85B2042DEFDB27
:101F2000002060603F202075002161750148024952
:101F3000086070BD441E0020500B002070B5602169
:101F40000A48FFF7CBFF094C04F11806002504E00E
:101F5000266018341836681C85B2032DF8DB002083
:101F6000206002480249086070BD0000F81E002091
:101F7000540B002010B50024FEF72EF90446134838
:101F80000078F0B912480078D8B900F02DF811485F
:101F9000007811490978884213D010480D49097812
:101FA00050F821000E49086008460068806B401C0C
:101FB000096888630B480068401C0A490860FEF7FE
:101FC00022F92046FEF70CF910BD00002D0B002071
:101FD0002E0B0020300B00202F0B00204C17002070
:101FE000440B0020140B00200649074A1278885C35
:101FF0000649095C034A515C01EBC001044A1170B7
:102000007047000044370008310B0020320B0020DD
:10201000300B00200246002005E011F8013B02F8D9
:10202000013B431CD8B20B78002BF6D113707047DC
:102030000146002002E0491C421CD0B20A78002A66
:10204000F9D170472DE9F84F05460E4617469846D8
:10205000DDE90BABDDF8289000200090FEF7BCF81E
:1020600000903A480468002C6BD0183454F8040CE3
:10207000364908600098FEF7B3F844F8186CA57666
:10208000002020766076E08244F814AC44F80C9C82
:1020900044F8107C24F808BC24F8068CE077E8109B
:1020A000207705F00700E076217F01208840A077A7
:1020B000E17E01208840607700206060A0602061A0
:1020C000E0602062A0626062E06220633F2084F8EA
:1020D0003400183C00214D2001552046FFF7DCF864
:1020E0002046FFF791F9FEF777F80090184840F87E
:1020F00025401848006860610020A061154800680C
:1021000010B1144800688461124804603434A07827
:102110001149097808431049087020780F49085C74
:102120006178084314F834190C4A50540C4800786C
:10213000401C0B4908700098FEF752F80020BDE8DB
:10214000F88F0098FEF74CF84220F8E7400B00208B
:102150004C170020480B0020310B0020320B0020D0
:10216000370B0020002400BFFEF736F80446054870
:102170000068401C034908602046FEF731F8FFF76D
:1021800044F9F1E7380B0020002402E0C820FFF7F3
:1021900093FA1A4800780028F8D01948006864219A
:1021A000B0FBF1F0164908600846006828B9002025
:1021B00014490870FF20FFF71FFA00BFFEF70CF864
:1021C0000446114800681149086000200E49086063
:1021D0002046FEF705F80D48006809490968B0FB7C
:1021E000F1F0C0F1640007490870FFF765F900F0ED
:1021F0000FF86420FFF760FAE0E700002C0B0020E6
:10220000240B0020200B0020380B0020280B00207E
:102210007CB5002514E069462846FFF74FF90646CD
:1022200066B9094850F8254044B1012C06D0D4E9DC
:10223000020100EB810060640198A064681CC5B2D3
:102240001F2DE8DD7CBD00004C17002002F00103CB
:1022500043B102F002032BB102E0491E002308C083
:102260000029FAD17047000001460020034A506857
:1022700020F44040084350607047000000100240C6
:1022800029B1064AD2690243044BDA6104E0034AE9
:10229000D2698243014BDA617047000000100240AE
:1022A00029B1064A92690243044B9A6104E0034A49
:1022B00092698243014B9A6170470000001002400E
:1022C00029B1064AD2680243044BDA6004E0034AAB
:1022D000D2688243014BDA60704700000010024070
:1022E00030B500210022002400232D4D6D6805F03B
:1022F0000C0121B1042905D0082923D105E0294D7D
:10230000056022E0274D05601FE0254D6D6805F44E
:102310007012234D6D6805F48034022505EB92425E
:102320001CB9214D554305600BE01D4D6D6805F44A
:1023300000351DB11C4D5543056002E0194D554354
:10234000056002E0174D056000BF00BF144D6D68C9
:1023500005F0F0010909154D6B5C0568DD4045602D
:102360000F4D6D6805F4E061090A104D6B5C45681E
:10237000DD4085600A4D6D6805F46051C90A0B4D5A
:102380006B5C4568DD40C560054D6D6805F44041F6
:10239000890B074D6B5CC568B5FBF3F5056130BD76
:1023A0000010024000127A0000093D005A0D002082
:1023B0006A0D002070B588B004460D460121022048
:1023C000FFF75EFF01210920FFF76AFF0120ADF84A
:1023D0001C0018208DF81F0003208DF81E0007A98F
:1023E0001748FEF7AFFAADF81440ADF810500020D2
:1023F000ADF81600ADF8120004A9124800F008FA72
:102400007020ADF800000120ADF802000020ADF80A
:10241000080069460B4800F09DF90821094800F0C2
:10242000E9F90121074800F06EF9264604EBD67061
:10243000C0F34F01034800F0E6F908B070BD00009A
:10244000000C01400004004010B500F001F810BD80
:102450000CB50020019000903348006840F48030B3
:102460003149086000BF3048006800F40030009037
:102470000198401C0190009818B90198B0F5A06F20
:10248000F1D12948006800F4003010B1012000901B
:1024900001E0002000900098012843D12348006803
:1024A00040F01000214908600846006820F0030051
:1024B00008600846006840F0020008601A4840685A
:1024C000194948600846406848600846406840F43A
:1024D000806048600846406820F47C1048600846E8
:1024E000406840F4E81048600846006840F080709A
:1024F000086000BF0C48006800F000700028F9D0A8
:102500000948406820F003000749486008464068D1
:1025100040F00200486000BF0348406800F00C0033
:102520000828F9D10CBD0000001002400020024034
:1025300010B5FDF751FE044606480078401C0549D9
:1025400008702046FDF74CFEFFF7EEF8FEF75AFD47
:1025500010BD00002D0B002010B51348006840F09E
:1025600001001149086008464068104908400E49BA
:102570004860084600680E4908400B490860084654
:10258000006820F4802008600846406820F4FE00BF
:1025900048604FF41F008860FFF756FF4FF000605F
:1025A0000449086010BD0000001002400000FFF860
:1025B000FFFFF6FE08ED00E010B50121880700F0EE
:1025C000AEF848B30121880700F09AF800214FF0D7
:1025D000804000F098F80021104800F094F810486E
:1025E000006840B90E48406828B90D48806810B9A5
:1025F0000B48C06818B901200A49086002E00020B1
:102600000849086008490968481C00EBD071491066
:10261000A0EB4101044A116010BD0000000400401D
:1026200070110020080B0020540900207FB50546DA
:102630000C4601210846FFF723FEADF80850ADF81F
:1026400004400020ADF80A00ADF8060001A94FF0E3
:10265000804000F0DDF801221146900700F070F88C
:102660001C208DF8000001208DF8010003208DF85A
:10267000020001208DF803006846FEF779FB7FBD5C
:1026800010B50121074800F04AF850B10121054872
:1026900000F036F80021034800F035F80120024927
:1026A000086010BD00080040FC0A00207FB5054608
:1026B0000C4601210420FFF7E3FDADF80850ADF80A
:1026C00004400020ADF80A00ADF8060001A90B484F
:1026D00000F09EF801221146084800F031F81E2053
:1026E0008DF8000000208DF801008DF80200012017
:1026F0008DF803006846FEF73BFB7FBD00080040F5
:10270000CA430282704721B1028842F0010202806E
:1027100004E002884FF6FE731A400280704730B51D
:102720000246002000230024158A05EA010395894A
:1027300005EA010413B10CB1012000E0002030BD16
:102740001AB183890B43838102E083898B438381A0
:102750007047000070B5002400220023058C4FF65E
:10276000FF6635400584028C8388848B4FF68F7515
:102770002C404FF6FC752C400D882C434FF6FF552E
:102780002A400D894FF6FF7606EA05252A434D8833
:1027900006EA05252A43154DA84202D0144DA84249
:1027A0001DD14FF2FF752A404D894FF6FF7606EA9C
:1027B00005252A434FF6FF352A408D8806EA052570
:1027C0002A434EF6FF752B404DF6FF752B408D8941
:1027D00006EA05152B43CD8906EA05152B438380B0
:1027E0008483CD888587028470BD0000002C014061
:1027F000003401400A460021818B4FF6F7731940DF
:10280000114381837047818770478184704700003E
:10281000002202881D4B98420ED01D4B98420BD0CF
:10282000B0F1804F08D01B4B984205D01A4B98420C
:1028300002D01A4B984204D14FF68F731A404B883E
:102840001A43174B984207D0164B984204D04FF6C4
:10285000FF431A40CB881A4302808B8883850B88FC
:1028600003850A4B98420BD0094B984208D00E4B77
:10287000984205D00D4B984202D00D4B984201D1A1
:102880000B7A03860123838270470000002C0140ED
:10289000003401400004004000080040000C0040EB
:1028A000001000400014004000400140004401407E
:1028B0000048014010B5FEF793FB40F225511E4839
:1028C00000F04CF810B31C4800F004F9C4B21B48E7
:1028D000008800F40040C8B91848008800F480401F
:1028E00060B10A2C03D000201449088020E013486E
:1028F000008840F400401149088019E00D2C06D1F1
:102900000E48008840F480400C49088010E00B48D5
:102910000088C0F30D000A490C5408480088401C88
:102920000649088008460088C72801DD0020088085
:10293000FEF768FB10BD000000380140580D002074
:10294000D824002021B1828942F40052828104E01F
:1029500082894DF6FF731A408281704770B5024636
:10296000002400230025002040F66A16B14200D161
:1029700000BFC1F3421501F01F03012606FA03F35D
:10298000012D02D19689334006E0022D02D1168A2C
:10299000334001E0968A33400C12012606FA04F413
:1029A0001688344013B10CB1012000E0002070BD46
:1029B000F0B50346002400260025002040F66A17E3
:1029C000B94200D100BF1846C1F3421401F01F06FE
:1029D000012707FA06F5012C01D10C3004E0022C86
:1029E00001D1103000E014301AB107682F4307609E
:1029F00002E00768AF430760F0BD00002DE9F04733
:102A000086B005460E460024A24600BFA146002718
:102A1000B08900B100BF2F462C8A4CF6FF700440ED
:102A2000F08804432C82AC894EF6F3100440B08841
:102A300031890843718908430443AC81AC8A4FF65D
:102A4000FF400440B0890443AC8201A8FFF748FC72
:102A50001F48874202D1DDF810A001E0DDF80CA08C
:102A6000A88900F4004040B10AEBCA0000EB0A104C
:102A700031684900B0FBF1F807E00AEBCA0000EB4F
:102A80000A1031688900B0FBF1F86420B8FBF0F05F
:102A900004012009642101FB1089A88900F4004089
:102AA00040B1322000EBC900B0FBF1F000F00700AC
:102AB000044308E0322000EB09106421B0FBF1F080
:102AC00000F00F0004432C8106B0BDE8F087000041
:102AD0000038014001468888C0F30800704700BFF5
:102AE0007047000038B50546002409E0A54203D12F
:102AF00001200DF8040002E000200DF80400641C21
:102B0000022CF3DB9DF801204FF480710548FDF79E
:102B1000A8FF9DF800204FF480510348FDF7A1FF66
:102B200038BD000000080140000C01402DE9FC41C7
:102B300006468846B8F1010F1FD10A2E1AD2DFE8E7
:102B400006F00507090B0D0F11131517C02413E02C
:102B5000F92411E0A4240FE0B0240DE099240BE047
:102B6000922409E0822407E0F82405E0802403E0B1
:102B7000902401E0862400BF0EE026B1012E04D08F
:102B8000022E06D103E0E72405E08F2403E0DE24D3
:102B900001E0862400BF00BF4FF4807700250BE0E2
:102BA0007F1004EA070018B900200DF8050002E0C4
:102BB00001200DF805006D1C082DF1DB9DF80020AB
:102BC0004FF480711948FDF74CFF9DF807208021D4
:102BD0001648FDF746FF9DF806204FF400511348B4
:102BE000FDF73FFF9DF805204FF480410F48FDF7AA
:102BF00038FF9DF8042020210C48FDF732FF9DF896
:102C000003204FF400410948FDF72BFF9DF80220F7
:102C100040210648FDF725FF9DF801204FF4007183
:102C20000248FDF71EFFBDE8FC810000000C0140DA
:102C300070B505460C4610490968481C00EBD07178
:102C40004910A0EB41010C4A11601046006848B9D8
:102C500010460068FFF746FF074801682046FFF767
:102C600065FF08E004480068FFF73CFF0248016880
:102C70002846FFF75BFF70BD600C002010B50020F8
:102C80001749086017490968481CC11700EB917182
:102C90008910A0EB8101134A11601046006820B929
:102CA0005321114800F048F919E00E480068012846
:102CB00004D13E210D4800F03FF910E009480068BA
:102CC000022804D13D210A4800F036F907E0054802
:102CD0000068032803D13E21064800F02DF910BDFD
:102CE000580900200C0B0020EC0000208403002079
:102CF000740500206407002010B500201849086002
:102D000018490968481C00EBD0714910A0EB41013B
:102D1000144A11601046006870B913A0FDF7D0FA8C
:102D2000002015490860421E64211448FDF744FB49
:102D300001201349086011E00A48006801280DD1FC
:102D400000200F4908600C4801680C4800F096F814
:102D500003200349086001200A49086010BD0000F3
:102D600058090020100B0020646F207265636F7299
:102D700064210A0D00000000F40A0020640900200C
:102D800060090020080B002070B515A0FDF798FA27
:102D90000B25002420E01648006838B101201549B1
:102DA000086000211448FFF7AEFC70BD04EB8402FC
:102DB000124B03EB8202128A91B204EB840203EB02
:102DC0008202928990B2FFF7F5FA0D4804604FF441
:102DD000FA70FDF78FFD641CAC42DCDB00BFE4E75A
:102DE00053656C6620436865636B210A0D00000023
:102DF0005C090020080B00200004004010000020A7
:102E0000F80A002000BF054A128802F04002002A9A
:102E1000F9D0C2B2014B1B1D1A8070470038014027
:102E200010B5FDF789FF4FF4A060FDF7D9FFFDF75E
:102E300017FDFDF7C7FC4FF4E13000F091F941F6C2
:102E40001F4144F61F60FFF7F1FB41F61F4140F2BE
:102E5000CF70FFF72BFCFEF79FF8FEF73BFE0A232F
:102E6000044A00210448FEF719FAFEF7F1F90020A0
:102E700010BD00006C0E0020093100082DE9F0475C
:102E800006460F46002021490860002540F2EE2842
:102E90008146824600241EA0FDF712FA00BF2CE0F6
:102EA0002048006840B101201F49086000211F48E8
:102EB000FFF729FCBDE8F08756F82540601C38B9BB
:102EC00000211A48FFF71FFC4046FDF713FD13E0F1
:102ED0001748046004EB8402164B03EB8202128A4B
:102EE00091B204EB840203EB8202928990B2FFF765
:102EF00061FA4046FDF7FEFC6D1CBD42D0DB0021AF
:102F00000A48FFF700FC00BFD4E700005809002082
:102F1000706C6179207265636F726420736F6E6785
:102F2000210A0D005C090020080B0020000400406D
:102F3000F80A0020100000202DE9FC5F05460F462E
:102F4000002440F2EE28A3460020019000262AA08B
:102F5000FDF7B6F900BF47E02B48006818B92B48C9
:102F60000068022808D10120294908600021294869
:102F7000FFF7C9FBBDE8FC9F05EBC4004668701C69
:102F800090B900212348FFF7BEFB404600F0AEFA9F
:102F9000009055F8341000F009FB824600F08AFAE0
:102FA0008146FDF7A7FC1EE01B48066006EB860283
:102FB0001A4B03EB8202128A91B206EB860203EBF4
:102FC0008202928990B2FFF7F5F9404600F08EFA3E
:102FD000009055F8341000F0E9FA824600F06AFAE1
:102FE0008146FDF787FC641CBC42B5DB0021094823
:102FF000FFF789FB00BFBDE7506C617920736F6EEE
:1030000067210A0D000000005C090020580900201B
:10301000080B002000040040F80A002010000020E7
:103020007CB52B490968481C00EBD0714910A0EB16
:103030004101274A1160BF264FF480751046006891
:10304000FFF750FD00240BE06D1006EA050018B9EB
:1030500000200DF8040002E001200DF80400641CBB
:10306000082CF1DB9DF800204FF480711948FDF722
:10307000F8FC9DF8072080211648FDF7F2FC9DF82A
:1030800006204FF400511348FDF7EBFC9DF8052096
:103090004FF480410F48FDF7E4FC9DF80420202107
:1030A0000C48FDF7DEFC9DF803204FF40041094871
:1030B000FDF7D7FC9DF8022040210648FDF7D1FC22
:1030C0009DF801204FF400710248FDF7CAFC7CBD59
:1030D000640C0020000C014010B500214FF080402E
:1030E000FFF793FB01218807FFF70DFB10BD0000E0
:1030F00010B500210348FFF788FB01210148FFF7C5
:1031000002FB10BD0008004070B50446002500BF5A
:10311000FDF762F8054603230B4A00210B48FEF732
:10312000BDF801230A4A00210A48FEF7B7F8062332
:10313000094A00210948FEF7B1F80A20FEF75CFAB7
:103140002846FDF74DF870BD6C100020A10800085E
:103150006C0F00209D0B00086C1100200109000875
:1031600010B586B00446012144F20400FFF798F838
:103170004FF40070ADF8140003208DF816001820ED
:103180008DF8170005A91548FDF7DCFB4FF48060AA
:10319000ADF8140004208DF8170005A90F48FDF7BD
:1031A000D1FB01940020ADF80800ADF80A00ADF89D
:1031B0000C00ADF810000C20ADF80E0001A9084875
:1031C000FFF71CFC012240F225510548FFF7F0FBF8
:1031D00001210348FFF7B6FB06B010BD000801400F
:1031E0000038014021F00042A2F16052B2F5801F88
:1031F00001F0004328BFD2F17F6C0BD95FEA001CBD
:1032000043EAC20242EB507018BF704728BF20F05B
:1032100001007047B2F5801FBCBF184670474FEAE7
:10322000410C1CF5001F02D2084600F086BA70B5AA
:1032300000F0B4F800000089FFF7F6BF4FF000403F
:10324000A0F5800070470000DFF848C170B51CEAA7
:10325000111E1EBF1CEA13159EEA0C0F95EA0C0FF7
:1032600000F06F8081EA030423EA4C134EEAD47E17
:1032700021EA4C1141F4801143F48013AE44A1FBC8
:10328000024CA0FB0365AEF17F7E361955EB0C05B1
:10329000A1FB034C4CF10003A0FB021C16EB0C0637
:1032A000654153F10003094218BF46F0010613F4CB
:1032B000007F0BD14FEA03314FEA0530340341EA76
:1032C000155140EA16506FF003020AE04FEAC3219D
:1032D0004FEAC520F40241EA555140EA56506FF0DA
:1032E000020202EB2E4201EB025585EACE710AD0B2
:1032F0005FEA440C18BF24F0004450F1000041F193
:10330000000120EAD47040F2FE7C624500D270BD1C
:10331000A84214BF4FF080444FF04044002E08BF35
:103320000024BEF1806FA8BFA1F1C041BDE870408C
:1033300080F282804FF0000001F1C04101F00041B5
:1033400070479EEA0C0F0CEA131518BF95EA0C0F94
:1033500006D04FF0000081EA030E0EF0004170BD70
:1033600000F01CF88900013E00F007B800F009B831
:103370004FEA430C5FEA5C5C08D081EA030100F08D
:103380005BB84FEA410C5FEA5C5CF6D14FF000009D
:10339000014970470000FF070000F87F0EF1020EA0
:1033A0002EF0030E5EF8046B364205D4012A43EB7F
:1033B000030515F5001F12D8012841EB010C1CF57F
:1033C000001F0CD80ED14FEAD17C15F5001F0CEB75
:1033D0004C0C0CF1020C08BF4CEBD37C04E04FF01A
:1033E000080C01E04FEAD37C0CEB4C0526FA05F6FD
:1033F00006F00706B6F1040C06D20EEB860CBDE80B
:1034000070404CF0010C6047DFE80CF0090B020241
:103410004FF000414FF00000A1F5002170BD1946AA
:103420001046012851EB010418BFD4F5001484BFE5
:10343000002001F0004170BD0808A0F500114FEA1E
:103440003101704743004FEAD30C4FEA3C0C434034
:103450001FBF40070CF1605113F0FE4F70471CF086
:10346000006F03D100200CF0004170470CF00043C6
:1034700043EA507010B540EACC0000F018F900BFE4
:10348000000000924FEA0001FFF7D6BF4FF0004165
:103490004FF00000A1F500217047401058BFC0F167
:1034A0004040491058BFC1F140418142EFF30080D4
:1034B0007047000041000B0ED3F19E0208D950F472
:1034C00000034FEA032323FA02F048BF404270474B
:1034D00010B500F0ECF800BF49922480002070473E
:1034E0006FF0004282EA20007047000010F00041B7
:1034F00048BF4042B0FA80F310FA03F2C3F19D03D3
:103500000BD051EAC35101EB1220530638BF70476C
:1035100000F1010008BF20F001007047B0FA80F30D
:1035200010FA03F2C3F19D030AD0D90501EB122072
:10353000530638BF704700F1010008BF20F00100BA
:103540007047000050EA010C00F113801CF5000FD9
:1035500058BFBCF5000F01D48842704707D710F55B
:10356000000F58BF11F5000F15D4884270478942EB
:1035700070471CF5000F04D5BCF5000FF7D581424C
:1035800070474FF0807C1CEB400F38BF1CEB410FA5
:1035900001D28142704710B500F089F892244900A9
:1035A0004FF000504FF08051FFF777BF4FF47F0C82
:1035B0001CEAD0121EBF1CEAD11392EA0C0F93EA48
:1035C0000C0F00F0478090EA010F48BF42F4807270
:1035D0004FF0004C4CEA00204CEA012102EB0302C0
:1035E000A0FB0113A2F50002002918BF43F001035C
:1035F0005B0028BF4FEA330342EB22425FEA132C01
:103600004CEBC2502EBFBCEB436FB2F57C0F704742
:103610004FEA036CBCF1004F08BF20F00100B2F587
:103620007C0F38BF70470BD582F0FF0212F5803F48
:10363000C8BF704700F1C040D8BF00F000407047DD
:1036400000F5000C5FEA4C0C48BF7047B0F1C04079
:1036500000F073B890EA010F0CEAD11348BF42F4AE
:103660008072624538BF634504D280EA010000F0F1
:103670000040704710B500F01AF800BF8900013E05
:1036800000F007B800F009B85FEA410C5FEA1C6C73
:1036900008D080EA010000F050B85FEA400C5FEA11
:1036A0001C6CF6D14FF00040A0F5800070470EF181
:1036B000020E2EF0030E5EF8044B244204D44FEAAF
:1036C0004102B2F17F4F11D84FEA4003B3F17F4F6F
:1036D0000CD80ED14FEAD07CB2F17F4F0CEB4C0CE2
:1036E0000CF1020C08BF4CEBD17C04E04FF0080C4D
:1036F00001E04FEAD17C0CEB4C0324FA03F404F014
:103700000704B4F1040C06D20EEB840CBDE81040A3
:103710004CF0010C6047DFE80CF0070802024FF0A4
:103720000040A0F5800010BD0846420018BFD2F14D
:10373000807288BF00F0004010BDFF2141EAD050E8
:10374000C0057047000001000200010003000100F5
:10375000020001000400010002000100030001005A
:103760000200010005000100020001000300010049
:10377000020001000400010002000100030001003A
:103780000200010006000100020001000300010028
:10379000020001000400010002000100030001001A
:1037A0000200010005000100020001000300010009
:1037B00002000100040001000200010003000100FA
:1037C00002000100070001000200010003000100E7
:1037D00002000100040001000200010003000100DA
:1037E00002000100050001000200010003000100C9
:1037F00002000100040001000200010003000100BA
:1038000002000100060001000200010003000100A7
:103810000200010004000100020001000300010099
:103820000200010005000100020001000300010088
:103830000200010004000100020001000300010079
:103840000200010001000000785634120A00100046
:1038500001002000400101001C00140002000500CE
:1038600010001F0001000100050010002400B4003A
:10387000010004000100040018000400010004001D
:103880000100010001008000010012001000010091
:1038900080000100010020005C00E80301001E011F
:1038A0001A0E0000C438000800000020700D00004F
:1038B00028010008143B0008700D0020901E000035
:1038C0008C010008100605000000040412030443E4
:1038D0000100011206041006E0080000A911527F41
:1038E0001512071412E805128B14436F012C2104E2
:1038F000127714127914526B1412023C12A741125F
:103900008814523714215C12ED69124C2852471466
:103910002174129814126528521F14218C12FB195D
:1039200012313C522B14218C43700424521B14215D
:103930008C12F45512131443070174218C12BB141A
:103940001267B452BE88218C52532842DDC7533FC0
:103950000208520508520608D20710B2051872C0B4
:1039600018414072804812FF012158553B533F03D4
:1039700060D20468411052802052806072C028B228
:103980000058728058D203B8B2023062C09003135C
:103990003E059072809841E852C07843803E1063A3
:1039A000803EF8061B080861B061E063204050616A
:1039B000A8053E58D201F8055E58D600306178322D
:1039C000FD1052401856A09076C0D84120E900570B
:1039D000803E70D33E017045A861485240F856A021
:1039E000906108F6004851D0CA3E50D004803E0491
:1039F0007861B8C510614002174050C1587AA08064
:103A0000C150695872401006130080E9A8CB803E6F
:103A1000B08138C1E07EA010036580BA06A0652899
:103A200065600A1540A07E407003DE061003CD8855
:103A300003D6A0F865608558DE045003E148011400
:103A4000F004041B403F00000110F0D206A059080A
:103A50005B4009A8492843803F105E007003DE00E8
:103A6000880479280115985B0040B85A4030011548
:103A70007862C0685D080401168081B8C9406D583D
:103A8000046DC803D00400400278E15061E8ED788D
:103A900004B60808F118E23F18ED6004069504002A
:103AA000B604A86DA80465908108D20528DE03C07D
:103AB00004DE02F004DE044806B603F8016078E98B
:103AC00070E128E188C120EDA00301302802150330
:103AD000A05DE803067240005DBC067D50096110E0
:103AE00001FF0101890165A452FF0192010C015EF1
:103AF0007C0DEA740B65600DED680C55EA2005013C
:103B000002030404000B000607080902040608006B
:043B100000000000B1
:04000005080000ED02
:00000001FF
